:100000000C942A000C945E010C9447000C94470059
:100010000C9447000C9447000C9447000C94470044
:100020000C9447000C94C6010C9447000C94730187
:100030000C9447000C9447000C9447000C94470024
:100040000C9447000C9447000C9447000C94470014
:100050000C94470011241FBECFE5D8E0DEBFCDBF12
:1000600010E0A0E6B0E0EEEDF9E002C005900D92E0
:10007000A236B107D9F720E0A2E6B0E001C01D9298
:10008000AB36B207E1F70E9419020C94ED040C9410
:10009000000060E083E40E94DC0261E083E40E94EF
:1000A000DC0262E083E40E94DC0263E083E40E94FD
:1000B000DC0264E083E40E94DC0265E083E40E94E9
:1000C000DC020E94DC0386E00E94DE0363E086E03F
:1000D0000E940A0486E00E94F7030E941E0208950F
:1000E000CF93DF93809160008130E1F108F4ABC0E1
:1000F000823009F0E0C06AE070E080E090E00E94A9
:10010000BB041DC060E083E40E94E00261E083E480
:100110000E94E40262E083E40E94E40265E083E47A
:100120000E94E00264E083E40E94E40263E083E46E
:100130000E94E40280916300865F0E946F028091BA
:10014000630090916400A0916500B091660018165C
:1001500019061A061B06B4F281E0809360008093B2
:100160006200A9C060E083E40E94E40261E083E4ED
:100170000E94E00262E083E40E94E40265E083E41E
:100180000E94E40264E083E40E94E00263E083E40E
:100190000E94E402CAE0D0E047C064EF71E080E072
:1001A00090E00E94D4040FC061E083E40E94E0026A
:1001B00064E083E40E94E00280916200813019F4DF
:1001C0008C2F0E946F028091670090916800A0912F
:1001D0006900B0916A00181619061A061B0624F366
:1001E00064EF71E080E090E00E94D4040FC061E011
:1001F00083E40E94E40264E083E40E94E4028091CC
:100200006200813019F48C2F0E946F028091670088
:1002100090916800A0916900B0916A0018161906C3
:100220001A061B0624F321971C161D060CF4B5CFE5
:1002300080916200811104C082E0809360003BC025
:100240001092600038C0109262006DE270E080E0B1
:1002500090E00E94BB041BC080E00E946F0260E03F
:1002600083E40E94E40261E083E40E94E40262E02D
:1002700083E40E94E00265E083E40E94E40264E01B
:1002800083E40E94E40263E083E40E94E002809140
:10029000600081110DC08091630090916400A09175
:1002A0006500B0916600181619061A061B06A4F21E
:1002B00081E080936000DF91CF9108951F920F92AB
:1002C0000FB60F9211248F9380916000811105C0A9
:1002D00081E080936000109262008F910F900FBEBA
:1002E0000F901F9018951F920F920FB60F92112426
:1002F0002F933F934F935F936F937F938F939F932E
:10030000AF93BF93EF93FF93809167009091680044
:10031000A0916900B0916A000197A109B109809389
:10032000670090936800A0936900B0936A00181664
:1003300019061A061B0684F480E00E94AE0480E0D1
:100340000E948E0460E970E080E00E94970462E001
:1003500080E00E94A10409C080E00E94AE0480E019
:100360000E948E0480E00E947404FF91EF91BF917F
:10037000AF919F918F917F916F915F914F913F913D
:100380002F910F900FBE0F901F9018951F920F92F4
:100390000FB60F9211242F933F934F935F936F9358
:1003A0007F938F939F93AF93BF93EF93FF9380912E
:1003B000630090916400A0916500B0916600019780
:1003C000A109B1098093630090936400A093650034
:1003D000B0936600181619061A061B0684F481E00D
:1003E0000E94AE0481E00E948E0467EF72EC81E00F
:1003F0000E94970463E081E00E94A10409C081E0AB
:100400000E94AE0481E00E948E0481E00E94740488
:10041000FF91EF91BF91AF919F918F917F916F91DC
:100420005F914F913F912F910F900FBE0F901F90B2
:1004300018950E9449000E947000FDCF41E060E0E5
:1004400081E40E94E80241E061E081E40E94E80268
:1004500041E062E081E40E94E80241E063E081E47F
:100460000E94E80241E064E081E40E94E80241E089
:1004700065E081E40E94E80241E066E081E40E94D8
:10048000E80241E067E081E40E94E80240E060E0C9
:1004900081E40E94620340E061E081E40E94620323
:1004A00040E062E081E40E94620340E063E081E4B6
:1004B0000E94620340E064E081E40E94620340E045
:1004C00065E081E40E94620340E066E081E40E940E
:1004D000620340E067E081E40E9462030895EF92C6
:1004E000FF920F931F93CF939DEC899F912D112421
:1004F000492F469546954695440F242F220F220FEB
:10050000420F282F241B422FE22EF12CC92FC69513
:10051000C695C6950C2F10E0833608F047C0417091
:1005200060E081E40E946203A70155954795417000
:1005300061E081E40E946203A701559547955595B6
:100540004795417062E081E40E946203A7015595DE
:1005500047955595479555954795417063E081E4DA
:100560000E9462034C2F417064E081E40E946203A8
:10057000A80155954795417065E081E40E946203AA
:10058000A8015595479555954795417066E081E4DA
:100590000E94620315950795159507951595079582
:1005A000402F417067E081E40E946203CF911F9168
:1005B0000F91FF90EF90089541E00E94E8020895A6
:1005C00041E00E946203089540E00E9462030895A2
:1005D000823431F118F4813439F008958334E1F133
:1005E000843409F454C0089541110CC02AB381E049
:1005F00090E002C0880F991F6A95E2F780958223E8
:100600008ABB0895413009F05CC02AB381E090E0D4
:1006100002C0880F991F6A95E2F7822B8ABB089562
:1006200041110CC027B381E090E002C0880F991FF0
:100630006A95E2F78095822387BB0895413009F0DF
:1006400040C027B381E090E002C0880F991F6A95EF
:10065000E2F7822B87BB089541110CC024B381E0DF
:1006600090E002C0880F991F6A95E2F78095822377
:1006700084BB0895413029F524B381E090E002C0A5
:10068000880F991F6A95E2F7822B84BB0895411168
:100690000CC021B381E090E002C0880F991F6A95D9
:1006A000E2F78095822381BB0895413051F421B354
:1006B00081E090E002C0880F991F6A95E2F7822BD3
:1006C00081BB0895823431F118F4813439F00895F2
:1006D0008334E1F1843409F454C0089541110CC00D
:1006E0002BB381E090E002C0880F991F6A95E2F772
:1006F000809582238BBB0895413009F05CC02BB3F9
:1007000081E090E002C0880F991F6A95E2F7822B82
:100710008BBB089541110CC028B381E090E002C06A
:10072000880F991F6A95E2F78095822388BB089508
:10073000413009F040C028B381E090E002C0880F4A
:10074000991F6A95E2F7822B88BB089541110CC06E
:1007500025B381E090E002C0880F991F6A95E2F707
:100760008095822385BB0895413029F525B381E02A
:1007700090E002C0880F991F6A95E2F7822B85BB33
:10078000089541110CC022B381E090E002C0880FAF
:10079000991F6A95E2F78095822382BB08954130C4
:1007A00051F422B381E090E002C0880F991F6A954E
:1007B000E2F7822B82BB089578940895863029F061
:1007C000873049F0853091F40CC041E062E084E468
:1007D0000E94E802089541E063E084E40E94E80298
:1007E000089541E063E084E40E94E80208958630C1
:1007F00029F0873039F0853061F408C08BB7806408
:100800008BBF08958BB780688BBF08958BB78062CC
:100810008BBF0895863031F0873041F1853009F083
:1008200055C048C0613069F028F0623089F063300B
:10083000B1F0089585B78E7F85BF85B78D7F85BF61
:10084000089585B7816085BF85B78D7F85BF089581
:1008500085B78E7F85BF85B7826085BF089585B7D0
:10086000816085BF85B7826085BF0895613069F07A
:1008700028F0623089F06330B1F0089585B78B7F3E
:1008800085BF85B7877F85BF089585B7846085BF9D
:1008900085B7877F85BF089585B78B7F85BF85B76F
:1008A000886085BF089585B7846085BF85B78860F7
:1008B00085BF0895623019F0633029F0089584B738
:1008C0008F7B84BF089584B7806484BF0895882394
:1008D00019F0813029F0089589B7816089BF0895A2
:1008E00089B7846089BF0895882319F0813029F081
:1008F000089589B78E7F89BF089589B78B7F89BF97
:100900000895882319F0813029F0089583B7682B62
:1009100063BF08958EB5682B6EBD0895882319F0C6
:10092000813019F0089513BE08951EBC08958823E0
:1009300019F0813019F0089562BF08957DBD6CBD36
:100940000895882319F0813029F0089583B7682B22
:1009500063BF08958EB5682B6EBD0895882319F086
:10096000813029F0089588B7816088BF089588B7DD
:10097000846088BF089560936300709364008093DF
:1009800065009093660060E081E00E94810467EF5B
:1009900072EC81E00E94970481E00E94670463E0AA
:1009A00081E00E94A104089560936700709368003D
:1009B0008093690090936A0060E080E00E94810467
:1009C00060E970E080E00E94970480E00E94670484
:0E09D00062E080E00E94A1040895F894FFCF39
:0209DE00020015
:00000001FF
